:1000000000308A001728000015308400000803190A
:10001000162806308D008C018C0B0C288D0B0B28BC
:100020007B308C008C0B1228800B092808001F30B5
:100030008305FF3083168500003086008312860119
:10004000051C3A28013091001108033C031C3A2892
:10005000061402309400FA3095000420940B2B28EB
:10006000061002309400FA3095000420940B3328D7
:10007000910A2428851C4B2892011208023C031C7B
:100080004B288614963095000420861096309500F3
:100090000420920A3D28051D632893011308023CA1
:1000A000031C63280614963095000420061086145D
:1000B0009630950004208610061596309500042091
:0A00C0000611930A4E282028630061
:02400E00F23F7F
:00000001FF
;PIC16F84A
;CRC=4EF7  CREATED="30-May-16 15:47"
